:100000000C9482000C94AA000C94AA000C94AA00F0
:100010000C94AA000C94AA000C94AA000C94AA00B8
:100020000C94AA000C94AA000C94AA000C94AA00A8
:100030000C94AA000C94AA000C94AA000C94AA0098
:100040000C940C070C94AA000C947C070C94560793
:100050000C94AA000C94AA000C94AA000C94AA0078
:100060000C94AA000C94AA0048454C4C4F2C4445D3
:10007000454A4D495845522C330048454C4C4F2C6D
:100080004445454A4D495845522C330048454C4C4F
:100090004F2C4445454A4D495845522C3300560093
:1000A000522C00502C0000000000240027002A00E1
:1000B00000000000230026002900000000002500A9
:1000C00028002B00040404040404040402020202B5
:1000D000020203030303030301020408102040800B
:1000E000010204081020010204081020000000088A
:1000F00000020100000304070000000000000000EF
:100100005208050D11241FBECFEFD8E0DEBFCDBFD2
:1001100011E0A0E0B1E0E2EEFDE102C005900D9239
:10012000AE34B107D9F722E0AEE4B1E001C01D92D0
:10013000A83AB207E1F710E0C1E8D0E004C0219787
:10014000FE010E94A70DC038D107C9F70E948E0892
:100150000C94E40E0C940000833081F028F481307C
:1001600099F08230A9F008958730A9F08830C9F05D
:100170008430B1F4809180008F7D03C08091800035
:100180008F7780938000089584B58F7784BD08951C
:1001900084B58F7DFBCF8091B0008F778093B000C6
:1001A00008958091B0008F7DF9CFCF93DF93282FF2
:1001B00030E0F901E451FF4F8491F901E852FF4F1B
:1001C000D491F901EC53FF4FC491CC2391F08111EC
:1001D0000E94AC00EC2FF0E0EE0FFF1FE654FF4F43
:1001E000A591B4918FB7F894EC91D095DE23DC9370
:1001F0008FBFDF91CF910895CF93DF93282F30E009
:10020000F901E451FF4F8491F901E852FF4FD49175
:10021000F901EC53FF4FC491CC23A1F081110E944E
:10022000AC00EC2FF0E0EE0FFF1FE055FF4FA59163
:10023000B491EC91ED2381E090E009F480E0DF914E
:10024000CF91089580E090E0FACFCF93DF9390E0D4
:10025000FC01E852FF4F24918C539F4FFC01849185
:100260008823C9F090E0880F991FFC01EA55FF4FE1
:10027000A591B491FC01E654FF4FC591D491611151
:100280000DC09FB7F8948C91209582238C93888120
:10029000282328839FBFDF91CF910895623051F4C6
:1002A0009FB7F8943C91822F809583238C93E881AB
:1002B0002E2BEFCF8FB7F894EC912E2B2C938FBF72
:1002C000EACF8E3008F08E508770806480937C0077
:1002D00080917A00806480937A0080917A0086FD14
:1002E000FCCF809178009091790008953FB7F89401
:1002F0008091D7019091D801A091D901B091DA01F4
:1003000026B5A89B05C02F3F19F00196A11DB11D70
:100310003FBFBA2FA92F982F8827BC01CD01620FAC
:10032000711D811D911D42E0660F771F881F991F67
:100330004A95D1F70895AF92BF92CF92DF92EF9294
:10034000FF920F931F93CF93DF936C017B018B017F
:10035000040F151FEB015E01AE18BF08C017D107CF
:1003600059F06991D601ED91FC910190F081E02D59
:10037000C6010995892B79F7C501DF91CF911F91AE
:100380000F91FF90EF90DF90CF90BF90AF900895C6
:10039000FC01538D448D252F30E0842F90E0821B8B
:1003A000930B541710F0CF96089501970895FC0110
:1003B000918D828D981761F0A28DAE0FBF2FB11D68
:1003C0005D968C91928D9F5F9F73928F90E00895C0
:1003D0008FEF9FEF0895FC01918D828D981731F07A
:1003E000828DE80FF11D858D90E008958FEF9FEFCE
:1003F0000895FC01918D228D892F90E0805C9F4FA4
:10040000821B91098F73992708958BED91E00E94CB
:10041000F90121E0892B09F420E0822F089580E082
:1004200090E0892B29F00E94050281110C940000B4
:100430000895FC01A48DA80FB92FB11DA35ABF4F79
:100440002C91848D90E001968F739927848FA689D3
:10045000B7892C93A089B1898C91837080648C9327
:10046000938D848D981306C00288F389E02D8081D6
:100470008F7D80830895EF92FF920F931F93CF9308
:10048000DF93EC0181E0888F9B8D8C8D98131AC0CF
:10049000E889F989808185FF15C09FB7F894EE89B6
:1004A000FF896083E889F989808183708064808313
:1004B0009FBF81E090E0DF91CF911F910F91FF905E
:1004C000EF900895F62E0B8D10E00F5F1F4F0F7306
:1004D0001127E02E8C8D8E110CC00FB607FCFACFC1
:1004E000E889F989808185FFF5CFCE010E94190244
:1004F000F1CFEB8DEC0FFD2FF11DE35AFF4FF08292
:100500009FB7F8940B8FEA89FB8980818062CFCFF7
:100510000F931F93CF93DF938C01D0E0C0E0F801DD
:10052000EC0FFD1F6491662341F08BED91E00E947A
:100530003B02892B11F02196F2CFCE01DF91CF91B2
:100540001F910F910895CF93DF93EC01888D88233D
:10055000B9F0AA89BB89E889F9898C9185FD03C026
:10056000808186FD0DC00FB607FCF7CF8C9185FF0B
:10057000F2CF808185FFEDCFCE010E941902E9CF35
:10058000DF91CF910895CF92DF92EF92FF920F9378
:100590001F93CF93DF93CDB7DEB729970FB6F894AB
:1005A000DEBF0FBECDBF8C010E947601D8011F9621
:1005B000CD90DD90ED90FC9052976C157D058E05E9
:1005C0009F0528F4F8016787708B818B928BD80187
:1005D0001F96CD90DD90ED90FC9052976C197D099F
:1005E0008E099F096C32714081059105E8F2F894FB
:1005F000F801848195819A8389830184F285E02DB5
:100600007F012FEFE21AF20A80818F83D8019C913B
:100610005396ED91FC91549755968C91992309F43A
:1006200048C09081982B98879081809589238987ED
:1006300089858B8388E08C83588569854F813C81CF
:100640002B8189819A81D701508347FD252F3A95C7
:100650002083262F39F0441F00C000006083000073
:1006600000C0F2CF38E04D9160830000019761F740
:10067000D8015496FC93EE9353974F833C832B837E
:100680009A83898378940E947601F8016787708B3A
:10069000818B928B29960FB6F894DEBF0FBECDBF2B
:1006A000DF91CF911F910F91FF90EF90DF90CF904E
:1006B00008959081982B98879081809589238987C8
:1006C00089858D8388E08E83588569854F813E8139
:1006D0002D8189819A81D701508347FD252F00C044
:1006E00000C0208300C000C000C000C000C0608304
:1006F0000000262F3A9541F0441F000000C000C0C2
:1007000000C000C000C0E8CF38E04D9100C0608359
:1007100000C0019709F7D8015496FC93EE935397C4
:100720004F833E832D83ACCFFF920F931F93CF93C4
:10073000DF93EC01FF24F394F60E28852F1581F149
:1007400009851A85215041F16F3FE1F430E050E016
:1007500040E06FEF7FEF80E090E00E946E0DB90106
:10076000F8014C815D81CF01801B910B84179507A7
:10077000B0F44081469FC001479F900D11249083A3
:100780003196EFCF8F2D90E0982F88270197622F19
:1007900070E00E94240DE4CF70E060E0E1CFF886C5
:1007A000DF91CF911F910F91FF9008958F929F92AB
:1007B000AF92BF92CF92DF92EF92FF921F93CF93AF
:1007C000DF93FC018281938168177907A8F54A01BC
:1007D000AA24BB24C82DC32ED42EE52EFF241C2D05
:1007E000D22F8085882361F0889E40011124C92D75
:1007F0008C9D600111241D2D829FD0011124DB2FBF
:10080000A685E184F2849385A91322C0CB01880FC9
:10081000991F680F791F6E0D7F1DA385A60FB72F37
:10082000B11DCC93A485A60FB72FB11D1C93858550
:10083000680F711DFB01D083DF91CF911F91FF9055
:10084000EF90DF90CF90BF90AF909F908F900895E2
:10085000660F771F660F771F6E0D7F1D252F3327BD
:1008600044275527882349F090E0829F7001839F99
:10087000F00C929FF00C11242F2DA60FB72FB11D55
:100880002C93CBCFCF93DF93EC018E819F8197FD8B
:100890000BC061E00E9425018E810E94D50081E09D
:1008A0008983DF91CF910895198280E0FACF90ED8E
:1008B000980F9A3010F4892F08959FEB980F963077
:1008C00010F4875308959FE9980F963010F48755D8
:1008D00008958FEF08950F931F93CF93DF93E82F21
:1008E000F0E0E35DFE4F0081802F0E94610114E083
:1008F000D0E0C0E0802F0E946101C80FD91F1150C5
:10090000C9F7CE019695879596958795DF91CF91FA
:100910001F910F9108954F925F926F927F928F92E5
:100920009F92AF92BF92CF92DF92EF92FF920F937E
:100930001F93CF93DF93CDB7DEB764970FB6F894CC
:10094000DEBF0FBECDBF409192025091930270E086
:1009500060E080919702909198020E94D20E40919F
:100960007C0250917D0270E060E080918102909164
:1009700082020E94D20E609101010091000110914B
:100980005C01F0907B0111113DC0F1103BC0613A58
:1009900008F060EA8EE892E00E949403602F88E7F6
:1009A00092E00E949403FF2009F480C0E09162016C
:1009B000F0E0EE0FFF1FED59FE4F20813181A7E0DF
:1009C000B0E00E948D0D62507C4F8F4F9F4F2FEFF4
:1009D00033E040E050E00E944C0DF22E10E000E0C9
:1009E0000F1598F4209112013091130140911401D8
:1009F00050911501B8018EE892E00E94D6030F5F76
:100A00001F4FEECF08EC68E7C5CFECE7EE2EE1E034
:100A1000FE2E10E000E0D7018D917D01882381F04A
:100A2000F801EE0FFF1FEE0FFF1FEE5FFE4F20815C
:100A3000318142815381B80188E792E00E94D60358
:100A40000F5F1F4F0430110531F78091800188231B
:100A5000A1F02FEF3FEF4FEF50E070E060E088E74C
:100A600092E00E94D6032FEF3FEF4FEF50E061E09E
:100A700070E088E792E00E94D6038091810188238C
:100A8000C1F12FEF3FEF4FEF50E062E070E088E7F9
:100A900092E00E94D6032FEF3FEF4FEF50E063E06C
:100AA00070E088E792E00E94D60323C0113009F07D
:100AB0004DC010E000E02FEF3FEF4FEF50E0B801E6
:100AC0008EE892E00E94D6030F5F1F4F073011059A
:100AD00091F710E000E02FEF3FEF4FEF50E0B8014B
:100AE00088E792E00E94D6030F5F1F4F0430110584
:100AF00091F78091970290919802892B21F08EE8CE
:100B000092E00E94C3028091810290918202892B1F
:100B100021F088E792E00E94C302109216016496C9
:100B20000FB6F894DEBF0FBECDBFDF91CF911F91FE
:100B30000F91FF90EF90DF90CF90BF90AF909F907C
:100B40008F907F906F905F904F900895123089F44E
:100B500010E000E02FEF3FEF4FEF50E0B8018EE8DC
:100B600092E00E94D6030F5F1F4F0730110591F7E7
:100B7000C0CF1330B9F462E0E62E61E0F62E10E04B
:100B800000E0F70121913191419151917F01B8012C
:100B900088E792E00E94D6030F5F1F4F04301105D3
:100BA00081F7A7CF1430F9F48091530190E06BE006
:100BB00070E00E94380DBC012FEF3FEF4FEF50E087
:100BC0008EE892E0673008F46ECF67507109FB0140
:100BD000EE0FFF1FEE0FFF1FEE5FFE4F20813181F2
:100BE000428153815ECF1530C1F580E1EDE1F1E046
:100BF000DE01119601900D928A95E1F780915301E3
:100C00008370F4E08F9FC001112421E030E02C0FAD
:100C10003D1F820F931FDC01CD90DD90ED90FC9085
:100C200010E000E0A7019601B8018EE892E00E9472
:100C3000D6030F5F1F4F07301105A1F710E000E04A
:100C4000A7019601B80188E792E00E94D6030F5FE2
:100C50001F4F04301105A1F74CCF8091610188230B
:100C600009F447CF10E000E080915201081798F492
:100C70000730110581F0209112013091130140914C
:100C8000140150911501B8018EE892E00E94D6033C
:100C90000F5F1F4FE9CF2EE4822E21E0922E32E02B
:100CA000A32E31E0B32E10E000E045E0442E512C9D
:100CB000612C712CF40181914F01823099F4D5019E
:100CC0002D913D914D915C91B80188E792E00E9491
:100CD000D6030F5F1F4FE4E0AE0EB11C04301105C8
:100CE00049F707CF8130A9F7D5018D919D910D90DE
:100CF000BC91A02D898B9A8BAB8BBC8B6A2F70E03B
:100D000090E080E0A30192010E944C0D7901DD2466
:100D1000CC24BA896B2F70E090E080E0A3019201AF
:100D20000E944C0D542F432F322F2227C22AD32A40
:100D3000E42AF52A69897A898B899C89772788270B
:100D40009927A30192010E944C0D2C293D294E297F
:100D50005F29BACF8F929F92AF92BF920F931F934A
:100D6000CF93DF93CDB7DEB7A1970FB6F894DEBF70
:100D70000FBECDBF19A2423008F44AE08E010F5DCC
:100D80001F4F842E912CB12CA12CA50194010E94FF
:100D90004C0DE62FB901CA01EA3044F5E05DD801F7
:100DA000EE938D01232B242B252B79F790E080E007
:100DB000109769F0FD0101900020E9F73197AF012C
:100DC0004A1B5B0BBD018BED91E00E949B01A1963C
:100DD0000FB6F894DEBF0FBECDBFDF91CF911F914C
:100DE0000F91BF90AF909F908F900895E95CD7CFFF
:100DF00042E050E06AE471E08BED91E00C949B01DD
:100E0000CF93DF930E948802EC010E94F8068C0FBA
:100E10009D1FDF91CF9108951F920F920FB60F92F1
:100E200011242F933F938F939F93AF93BF93809100
:100E3000D3019091D401A091D501B091D601309108
:100E4000D20123E0230F2D3758F50196A11DB11DC6
:100E50002093D2018093D3019093D401A093D50124
:100E6000B093D6018091D7019091D801A091D9017A
:100E7000B091DA010196A11DB11D8093D701909325
:100E8000D801A093D901B093DA01BF91AF919F919E
:100E90008F913F912F910F900FBE0F901F9018953B
:100EA00026E8230F0296A11DB11DD2CF1F920F92EB
:100EB0000FB60F9211242F933F934F935F936F932D
:100EC0007F938F939F93AF93BF93EF93FF938BED9C
:100ED00091E00E941902FF91EF91BF91AF919F9114
:100EE0008F917F916F915F914F913F912F910F90D3
:100EF0000FBE0F901F9018951F920F920FB60F9272
:100F000011242F938F939F93EF93FF93E091EB0125
:100F1000F091EC018081E091F101F091F20182FD0C
:100F20001BC090818091F4018F5F8F732091F50138
:100F3000821741F0E091F401F0E0E552FE4F958F09
:100F40008093F401FF91EF919F918F912F910F90DA
:100F50000FBE0F901F9018958081F4CFBF92CF9253
:100F6000DF92EF92FF920F931F93CF93DF93EC01E9
:100F70008B016A01E881F981808180538A3058F0C1
:100F800080E0DF91CF911F910F91FF90EF90DF9064
:100F9000CF90BF90089520E030E0A901F12CE12C22
:100FA000E881F981B08080ED8B0D8A30D0F4AAE021
:100FB000B0E00E949C0D2B2DBB0C330B205331094C
:100FC000032E000C440B550B260F371F481F591FCB
:100FD000C216D306E406F50698F23196F983E88343
:100FE000DFCFF8013183208381E0CBCFCF92DF9236
:100FF000EF92FF920F931F93CF93DF93EC016B015E
:10100000F42EE52E198218861F86188A198A1A8AE4
:1010100081E08E878B871C8692E09D8788838B0179
:10102000000F111F060F171F1D830C83C8010E949C
:10103000AD0D9A878987009781F1A80170E060E083
:101040000E94D20EDB82CA82FE82EF8289818823CF
:1010500039F061E08F2D0E9425018F2D0E94D5006F
:101060008F2D9E2DFC01EC53FF4FE491F0E0EE0F2D
:10107000FF1FE654FF4F259134913C8B2B8BFC01D5
:10108000E852FF4FE491ED8BDF91CF911F910F91CB
:10109000FF90EF90DF90CF9008951D821C821B82FD
:1010A0001A82D2CFEBEDF1E01382128288EE93E048
:1010B000A0E0B0E084839583A683B7838CE391E0BE
:1010C0009183808385EC90E09587848784EC90E021
:1010D0009787868780EC90E0918B808B81EC90E005
:1010E000938B828B82EC90E0958B848B86EC90E0E6
:1010F000978B868B118E128E138E148E4CE050E0DF
:1011000067E070E08EE892E00E94F6074BE050E066
:1011100064E070E088E792E00C94F607CF93DF93E9
:10112000CDB7DEB760970FB6F894DEBF0FBECDBF68
:10113000789484B5826084BD84B5816084BD85B5B2
:10114000826085BD85B5816085BD80916E008160BE
:1011500080936E0010928100809181008260809364
:101160008100809181008160809381008091800066
:101170008160809380008091B10084608093B10091
:101180008091B00081608093B00080917A0084608B
:1011900080937A0080917A00826080937A008091B7
:1011A0007A00816080937A0080917A0080688093D1
:1011B0007A001092C100E091EB01F091EC0182E025
:1011C0008083E091E701F091E8011082E091E9016C
:1011D000F091EA0180E180831092F301E091EF0148
:1011E000F091F00186E08083E091ED01F091EE0155
:1011F000808180618083E091ED01F091EE0180813A
:1012000088608083E091ED01F091EE01808180683B
:101210008083E091ED01F091EE0180818F7D8083EC
:1012200002E311E062E0D8018D918D010E94250159
:10123000B1E008331B07B1F70E9476016B017C0116
:10124000F5E08F2E912CA12CB12C0E9476016C1907
:101250007D098E099F09683E734081059105A8F3B9
:10126000E1E08E1A9108A108B108F8EECF0EF3E084
:10127000DF1EE11CF11C81149104A104B10429F7C3
:1012800082E8882E81E0982E9AE9A92E91E0B92E65
:101290002CE7C22E21E0D22E32E3E32E31E0F32EF2
:1012A000D7018D917D010E94FC0021E0892B09F07E
:1012B00020E0F60121936F01D5012D935D01F4012A
:1012C00011921192119211924F010E151F0541F7C3
:1012D00073E6E72E71E0F72EEDE6CE2EE1E0DE2E8E
:1012E00010E0812F0E946B049C01220F331F220FFC
:1012F000331FD6012D933D936D01F7018193919397
:101300007F011F5F153069F780917C0180937B011D
:101310008EE892E00E94420488E792E00E94420434
:101320000E948B0488E690E00E9400078FB7F89433
:101330008090D3019090D401A090D501B090D601B7
:101340008FBF7724739453EAE52E51E0F52E8BED91
:1013500091E00E94F901892B09F49FC18BED91E086
:101360000E94D7018A3009F085C18091D101E82F10
:10137000F0E0EF55FE4F10829091A001911112C044
:10138000882381F001EA11E0188B0F878091A10179
:101390008F3369F48091A201811109C08AE790E03E
:1013A0000E9400071092D1011092A001D0CF6AE2F2
:1013B00070E081EA91E00E94D90E8C01009791F3D0
:1013C000DC0111968C911197882361F31296CC90D1
:1013D0001297CC2039F313969C919111E3CF0E9480
:1013E0005704D82E8C2D0E945704D7FCDBCF87FDE5
:1013F000D9CFE1EAF1E090E0E017F10718F421918C
:101400009227FACFBD2DE0E1BE0290011124822B7C
:101410009813C8CFD8011C928091A2018C3211F68A
:101420008091A101F88AEF86833409F057C044E027
:1014300050E0BE01675F7F4FCE010F960E94AE075E
:10144000882309F4AFCFEF85F88980818C3209F0C9
:10145000A9CF3196F88BEF8746E0D42E212C312C82
:1014600021010F851889C8010196988B8F87F80193
:1014700080810E94570487FD95CF34E0220C331CF5
:10148000441C551C3A95D1F7482F880F550B660B15
:10149000770B242A352A462A572ADA94D110E1CF2D
:1014A000D80111968C9181117DCFE985FA85EE0FD7
:1014B000FF1FEE0FFF1FEE5FFE4F80819181A28123
:1014C000B381281639064A065B0609F497C02082C4
:1014D0003182428253827092160190C08C3409F09E
:1014E000A9C047E050E0BE01635F7F4FCE010F9679
:1014F0000E94AE07882309F455CF8E010F5F1F4F5E
:10150000680194E0692EEF85F88980818C3209F0BA
:1015100049CF3196F88BEF8742E050E0B601CE011B
:101520000F960E94AE07882309F43CCF6A94B2E07C
:10153000CB0ED11C6110E7CFEF85F88980818C320A
:1015400009F030CF3196F88BEF874FEF50E0BE01B6
:10155000655F7F4FCE010F960E94AE07882309F486
:1015600021CFEF85F88980818C3209F01BCF31962D
:10157000F88BEF874FEF50E0BE01675F7F4FCE01E2
:101580000F960E94AE07882309F40CCFEF85F889E7
:101590009081911107CF6D857E854B855C8529856E
:1015A0003A85909152019617170651F490910101D6
:1015B0009417150629F4909100019217130611F063
:1015C0007092160160935201409301012093000133
:1015D00090911601EEE4F1E04191D8012D913D91F9
:1015E0008D014217130609F0982FDF0111972C93F4
:1015F000B1E0E235FB0781F7909316012FB7F8941D
:101600008091D3019091D401A091D501B091D601E0
:101610002FBF80935D0190935E01A0935F01B09313
:101620006001809161018111BDCE70926101709263
:101630001601B8CE843509F0B5CE45E050E0BE01C4
:101640006F5F7F4FCE010F960E94AE07882309F48B
:10165000A9CEEF85F88980818111A4CE89819A81F4
:1016600020915C012817190649F280935C011092C1
:10167000530131CF8D3009F46ACEE091D101EF32C0
:1016800048F491E09E0F9093D101F0E0EF55FE4FAA
:1016900080835DCE7092A0015ACEA2E8EA2EA1E02E
:1016A000FA2EBCE7CB2EB1E0DB2E412C512C3201BF
:1016B0000AE911E082E3282E81E0382EF1018191C0
:1016C0001F010E94FC0021E0892B09F020E0D801D5
:1016D0008C91281731F02C93F70180829182A2829D
:1016E000B382D8012C91F6019081921749F1D7016C
:1016F0004D915D916D917C91D501C401841B950B39
:10170000A60BB70BAC01BD014F305105610571054A
:10171000B8F0208383EA90E0211102C080EA90E0D3
:101720000E9488024AE0C301B2010E94AA060E94F8
:10173000F80680917B01882319F091E090931601BF
:101740000F5F1F4FAFEF4A1A5A0A6A0A7A0ABFEFB1
:10175000CB1ADB0AE4E0EE0EF11CF6E04F16510462
:101760006104710409F0AACF80917701909178010A
:10177000A0917901B0917A0195018401081B190BA0
:101780002A0B3B0BD901C8014497A105B10508F408
:101790009AC08092770190927801A0927901B092DC
:1017A0007A01ECE7F1E090E080E0712C21E030E09C
:1017B0004191442339F0A901082E01C0440F0A9435
:1017C000EAF7742A01968630910591F78EE990E048
:1017D0000E948802F3E6EF2EF1E0FF2E0DE611E005
:1017E000612C55245394862D0E946B04D8016D9171
:1017F0007C911197AB0156954795569547959C015D
:10180000241B350B285E3F4F2133310508F4EAC015
:10181000880F991F880F991F8D939C93D8018D91E4
:101820009C9102969695879596958795853091051A
:1018300008F4E0C08B3FB3E09B0708F0DEC067010F
:10184000F701408151819C01241B350B2E5F3F4FD6
:101850002530310548F4009721F08F3FF3E09F07D2
:1018600071F48417950759F0D7018D939C9380915B
:101870007B01882321F060926201509216016CE294
:101880008BED91E00E943B02B2E0EB0EF11CF60101
:101890006081718190E080E04AE00E94AA06639432
:1018A0000E5F1F4FF5E06F129ECF6CE28BED91E063
:1018B0000E943B02672D70E090E080E04AE00E94C9
:1018C000AA060E94F80680916101882339F12FB79A
:1018D000F8948091D3019091D401A091D501B09159
:1018E000D6012FBF40915D0150915E0160915F0173
:1018F00070916001841B950BA60BB70B893B9B4035
:10190000A105B10538F01092610110925C0181E0EF
:101910008093160180916101811121C0809158014D
:1019200090915901A0915A01B0915B01A5019401D8
:10193000281B390B4A0B5B0BDA01C901883E934027
:10194000A105B10560F08092580190925901A092D2
:101950005A01B0925B018CE890E00E9400078091F0
:101960005C019CEF980F923058F5409154015091D2
:101970005501609156017091570195018401041B36
:10198000150B260B370BB901A8018430C9F58EE57C
:1019900091E0A0E0B0E0481759076A077B0780F0A4
:1019A0008092540190925501A0925601B092570135
:1019B000809153018F5F8093530181E080931601E2
:1019C0008091160181110E948B0480E090E0892BA8
:1019D00009F4ACCC0E940502882309F4A7CC0E942C
:1019E0000000A4CC860F971F841B950BF8019183F0
:1019F000808314CF90E080E022CF8FEF93E01FCF61
:101A000088E592E0A0E0B0E0C6CF8091810290919D
:101A100082020E94490E80917E0290917F0297FD82
:101A200003C060E00E942501809197029091980286
:101A30000E94490E809194029091950297FD03C0F7
:101A400060E00C9425010895AA1BBB1B51E107C05F
:101A5000AA1FBB1FA617B70710F0A61BB70B881F3E
:101A6000991F5A95A9F780959095BC01CD010895CD
:101A700097FB072E16F4009407D077FD09D00E943B
:101A8000240D07FC05D03EF4909581959F4F089555
:101A9000709561957F4F0895A1E21A2EAA1BBB1B7A
:101AA000FD010DC0AA1FBB1FEE1FFF1FA217B3072A
:101AB000E407F50720F0A21BB30BE40BF50B661F40
:101AC000771F881F991F1A9469F760957095809504
:101AD00090959B01AC01BD01CF010895052E97FBA8
:101AE0001EF400940E94850D57FD07D00E944C0DF6
:101AF00007FC03D04EF40C94850D5095409530951D
:101B000021953F4F4F4F5F4F089590958095709569
:101B100061957F4F8F4F9F4F0895A29FB001B39F54
:101B2000C001A39F700D811D1124911DB29F700DE6
:101B3000811D1124911D08950E948D0DA59F900D6A
:101B4000B49F900DA49F800D911D11240895EE0F58
:101B5000FF1F0590F491E02D09940F931F93CF93ED
:101B6000DF938230910510F482E090E0E091A602CC
:101B7000F091A70230E020E0B0E0A0E0309799F4C7
:101B80002115310509F44AC0281B390B24303105D1
:101B9000D8F58A819B816115710589F1FB019383D9
:101BA0008283FE0111C04081518102811381481757
:101BB0005907E0F04817590799F4109761F0129609
:101BC0000C93129713961C933296CF01DF91CF910D
:101BD0001F910F9108950093A6021093A702F4CFCE
:101BE0002115310551F04217530738F0A901DB01E7
:101BF0009A01BD01DF01F801C1CFEF01F9CF909348
:101C0000A7028093A602CDCFFE01E20FF31F8193BE
:101C100091932250310939832883D7CF2091A40290
:101C20003091A502232B41F42091190130911A0122
:101C30003093A5022093A40220911701309118013E
:101C40002115310541F42DB73EB740911B0150914C
:101C50001C01241B350BE091A402F091A502E217B0
:101C6000F307A0F42E1B3F0B2817390778F0AC01BF
:101C70004E5F5F4F2417350748F04E0F5F1F50939C
:101C8000A5024093A402819391939FCFF0E0E0E0FE
:101C90009CCFCF93DF930097E9F0FC01329713823A
:101CA0001282A091A602B091A702ED0130E020E0DF
:101CB0001097A1F420813181820F931F2091A402FB
:101CC0003091A5022817390709F061C0F093A502E9
:101CD000E093A402DF91CF910895EA01CE17DF07C8
:101CE000E8F54A815B819E0141155105B1F7E90193
:101CF000FB83EA8349915991C40FD51FEC17FD0767
:101D000061F4808191810296840F951FE901998386
:101D10008883828193819B838A83F0E0E0E012963E
:101D20008D919C9113970097B9F52D913C91119746
:101D3000CD010296820F931F2091A4023091A5023B
:101D40002817390739F6309751F51092A7021092EB
:101D5000A602B093A502A093A402BCCFD383C283F2
:101D600040815181840F951FC817D90761F44E5FD8
:101D70005F4F88819981480F591F518340838A8121
:101D80009B81938382832115310509F0B0CFF093B5
:101D9000A702E093A6029ECFFD01DC01C0CF138213
:101DA0001282D7CFDC0101C06D9341505040E0F763
:101DB0000895FC018191861721F08823D9F799278E
:101DC00008953197CF01089510E0C1E8D0E004C034
:101DD000FE010E94A70D2196C238D107C9F7F894D9
:021DE000FFCF33
:101DE200C8642D1BFF00F4C06600F265580054B9A8
:101DF2001D00FFA03000010000A80220000000FF2B
:101E02000000FF0000FF000000FFFFFF000E0F10A8
:101E12001112020304050607000000003B029B01A9
:0E1E2200C801A302F901D701EB010D0A00006F
:00000001FF
